16121317013100144781ANCHETAS COMFACOR                     1915615     0000100034900812163      0000100010200995116      0000100004000707565      0000100011900996443      000010000305080792       00001000055501433776     00001000023401246999     0000100011500857973      00001000044001011569     00001000029502007749     0000100002430917772      0000100001500581181      00001000045701252379     0000100010450862233      000010002600069037       00001000054001303714     0000100003700701382      0000100002400            0000100000000            0000100000000            0000100000000            0000100000000            0000100000000            0000100000000            0000100000000            0000100000000            0000100000000            0000100000000            0000100000000            0000100000000            0000100000000            0000100000000            0000100000000            0000100000000            0000100000000            0000100000000            0000100000000            0000100000000            0000100000000            0000100000000
17062417070300039900COMBO VIV-LIC-DELIK                   971531      0000200003960945050      00001000193001143637     0000100028800            0000100000000            0000100000000            0000100000000            0000100000000            0000100000000            0000100000000            0000100000000            0000100000000            0000100000000            0000100000000            0000100000000            0000100000000            0000100000000            0000100000000            0000100000000            0000100000000            0000100000000            0000100000000            0000100000000            0000100000000            0000100000000            0000100000000            0000100000000            0000100000000            0000100000000            0000100000000            0000100000000            0000100000000            0000100000000            0000100000000            0000100000000            0000100000000            0000100000000            0000100000000            0000100000000            0000100000000            0000100000000
17071517080700015900MOCHILA FERIA DE LAS FLORES           1650635     00001000150501112266     00001000012001220056     00001000012001245926     0000100000550            0000100000000            0000100000000            0000100000000            0000100000000            0000100000000            0000100000000            0000100000000            0000100000000            0000100000000            0000100000000            0000100000000            0000100000000            0000100000000            0000100000000            0000100000000            0000100000000            0000100000000            0000100000000            0000100000000            0000100000000            0000100000000            0000100000000            0000100000000            0000100000000            0000100000000            0000100000000            0000100000000            0000100000000            0000100000000            0000100000000            0000100000000            0000100000000            0000100000000            0000100000000            0000100000000            0000100000000
12120413013100089010ANCHETA VISION GLOBAL 3               856224      000010000465038983       0000100004900840648      00001000059501485325     0000100003200742868      0000100003950842902      0000100003100853855      000010000284069037       0000100004700523459      0000100003870847262      0000100004600160560      000010000670089210       0000100005800483115      00001000044501552638     000010000150051725       00001000097001542751     0000100002210742260      0000100005300727129      00001000060702002529     00001000080701625251     0000100001462            0000100000000            0000100000000            0000100000000            0000100000000            0000100000000            0000100000000            0000100000000            0000100000000            0000100000000            0000100000000            0000100000000            0000100000000            0000100000000            0000100000000            0000100000000            0000100000000            0000100000000            0000100000000            0000100000000            0000100000000
16112817013100208890COEDUCADORES BOYACA 1                 779657      00001000042501216640     000010000770011244       00001000092501116191     0000100004500780887      00001000068402001864     00001000077302001569     00001000072502006097     0000100007950847262      0000100006400998518      00001000099001651445     0000100006950106323      0000100017300763701      00001000221501253742     00001000075502005358     00001000159502005360     000010001085035270       00001000320001030128     0000100030100            0000100000000            0000100000000            0000100000000            0000100000000            0000100000000            0000100000000            0000100000000            0000100000000            0000100000000            0000100000000            0000100000000            0000100000000            0000100000000            0000100000000            0000100000000            0000100000000            0000100000000            0000100000000            0000100000000            0000100000000            0000100000000            0000100000000
15110515111000962255COEDUCADORES BOYACA 2                 574773      0000400005950572743      00010000166001478750     0001500040400647927      00002000143001030129     0001000018300            0000100000000            0000100000000            0000100000000            0000100000000            0000100000000            0000100000000            0000100000000            0000100000000            0000100000000            0000100000000            0000100000000            0000100000000            0000100000000            0000100000000            0000100000000            0000100000000            0000100000000            0000100000000            0000100000000            0000100000000            0000100000000            0000100000000            0000100000000            0000100000000            0000100000000            0000100000000            0000100000000            0000100000000            0000100000000            0000100000000            0000100000000            0000100000000            0000100000000            0000100000000            0000100000000
17040417041400041100ANCHETA S.O.S.  MOCOA                 1333593     0000200001900895982      0000100003450990477      00001000044002001068     0000400001050758951      00001000058001630414     00001000027001247695     00001000038501139385     0000100002700697641      0000100000900647925      00001000032002000160     000010000180073611       00002000014501625251     0000100001450            0000100000000            0000100000000            0000100000000            0000100000000            0000100000000            0000100000000            0000100000000            0000100000000            0000100000000            0000100000000            0000100000000            0000100000000            0000100000000            0000100000000            0000100000000            0000100000000            0000100000000            0000100000000            0000100000000            0000100000000            0000100000000            0000100000000            0000100000000            0000100000000            0000100000000            0000100000000            0000100000000
16122217013100094233ANCHETA NESQUIK                       1235822     0000100003900536164      0000100005950554139      00001000035001079625     0000100004000980920      00001000068001093848     00001000042501156129     00003000032501290666     00001000035001043984     0000100002950777179      0000100005150777181      000010000515035357       0000100011600483273      00001000036501177338     0000100005800402213      0000100002950942891      0000100002240917772      0000100003400859091      00001000056501022611     0000100004050            0000100000000            0000100000000            0000100000000            0000100000000            0000100000000            0000100000000            0000100000000            0000100000000            0000100000000            0000100000000            0000100000000            0000100000000            0000100000000            0000100000000            0000100000000            0000100000000            0000100000000            0000100000000            0000100000000            0000100000000            0000100000000
16120317013100090081ANCHETA LAJITAS - 1                   963766      00001000040502000025     00001000165002000081     00001000013001650037     00001000021001156130     0000300003250707029      0000100000850895982      0000100003650863457      00001000057501177338     00001000058001145931     00001000007902000093     00001000036501267411     00001000021501155192     00001000024002002495     00001000017502000097     00001000031001043984     0000100002950567652      0000100001750882445      00003000049502000171     00001000026501005492     00001000029501145930     00002000007901023781     00001000036001022611     0000100003100            0000100000000            0000100000000            0000100000000            0000100000000            0000100000000            0000100000000            0000100000000            0000100000000            0000100000000            0000100000000            0000100000000            0000100000000            0000100000000            0000100000000            0000100000000            0000100000000            0000100000000
16120317013100073842ANCHETA  LAJITAS - 2                  963766      00001000040501626295     00001000084001650037     00001000021001156130     00002000032501267411     0000100002150707029      0000100000850863457      0000100005750895982      00001000036501177338     00001000058002000093     00001000036501155192     00001000024002000097     00001000031001043984     0000100002950567652      0000100001750882445      00002000049502000171     00001000026501145931     00001000007901005492     00001000029501145930     00002000007901023781     00001000036001022611     0000100003100            0000100000000            0000100000000            0000100000000            0000100000000            0000100000000            0000100000000            0000100000000            0000100000000            0000100000000            0000100000000            0000100000000            0000100000000            0000100000000            0000100000000            0000100000000            0000100000000            0000100000000            0000100000000            0000100000000
16120317013100054843ANCHETA MUNICIPALES  - 1              963766      00001000040501626295     00001000084001156130     00002000032501650037     0000100002100707029      00001000008501005492     00001000029501044039     00001000010501155192     0000100002400895982      00001000036502000093     00001000036501267411     00001000021502000097     0000100003100882445      00002000049502000171     00001000026501145930     00002000007901625251     0000100001415            0000100000000            0000100000000            0000100000000            0000100000000            0000100000000            0000100000000            0000100000000            0000100000000            0000100000000            0000100000000            0000100000000            0000100000000            0000100000000            0000100000000            0000100000000            0000100000000            0000100000000            0000100000000            0000100000000            0000100000000            0000100000000            0000100000000            0000100000000            0000100000000
16120317013100151040ANCHETA LAJITAS - 3                   790744      00001000094901240327     00001000062501177338     00001000058001245576     0000100002250900041      0000100003990980920      0000100006800811169      00002000037001156129     00004000032501306418     0000100004600951334      00003000021001023915     00001000036001023781     000010000360013782       000010000800035357       0000100012900791435      00001000040002004292     0000100006550402267      00001000032001110314     0000100005600149963      00001000029902008278     000010000352082290       000010000150082278       0000100001500427210      00003000028302006398     00006000014501034818     0000100005830581176      00001000050001625251     0000100002500            0000100000000            0000100000000            0000100000000            0000100000000            0000100000000            0000100000000            0000100000000            0000100000000            0000100000000            0000100000000            0000100000000            0000100000000            0000100000000
16120317013100086890ANCHETA LAJITAS - 4                   13784       00001000036701034818     00001000058302001770     00001000034501177338     0000100005800980920      0000100006800832161      00001000025501245576     00001000022501275431     00001000022001245522     00001000020501156129     0000300003250900041      00001000039901207421     0000100004400951334      00001000021001095719     0000100003800968864      0000100007700581176      00001000050001023781     00001000036001306387     00001000058501023915     00001000036001625251     0000100002500            0000100000000            0000100000000            0000100000000            0000100000000            0000100000000            0000100000000            0000100000000            0000100000000            0000100000000            0000100000000            0000100000000            0000100000000            0000100000000            0000100000000            0000100000000            0000100000000            0000100000000            0000100000000            0000100000000            0000100000000
16121917013100039710ANCHETA NAVIDE베 - 1                  773009      00001000034001245522     0000100002050960045      0000100001500647922      0000100001600697641      00001000008002002495     00001000017502000171     0000100002850963766      000010000350025895       00001000016001034826     00001000024301267411     00001000017501043998     00001000010501022611     00001000029001145930     00001000007901303940     00001000037001303714     00001000037001306314     00001000032502001068     0000100001050679092      0000100002750            0000100000000            0000100000000            0000100000000            0000100000000            0000100000000            0000100000000            0000100000000            0000100000000            0000100000000            0000100000000            0000100000000            0000100000000            0000100000000            0000100000000            0000100000000            0000100000000            0000100000000            0000100000000            0000100000000            0000100000000            0000100000000
16121917013100039710ANCHETA NAVIDE베 - 2                  773009      00001000034001245522     0000100002050960045      0000100001500647922      0000100001600697641      00001000008002002495     00001000017502000171     0000100002850963766      000010000350025895       00001000016001034826     00001000024301267411     00001000017501043998     00001000010501022611     00001000029001145930     00001000007901303940     00001000037001303714     00001000037001306314     00001000032502001068     00001000010501613978     0000100002750            0000100000000            0000100000000            0000100000000            0000100000000            0000100000000            0000100000000            0000100000000            0000100000000            0000100000000            0000100000000            0000100000000            0000100000000            0000100000000            0000100000000            0000100000000            0000100000000            0000100000000            0000100000000            0000100000000            0000100000000            0000100000000
16121917013100039710ANCHETA NAVIDE베 - 3                  773009      00001000034001245522     0000100002050960045      0000100001500647922      0000100001600697641      00001000008002002495     00001000017502000171     0000100002850963766      000010000350025895       00001000016001034826     00001000024301267411     00001000017501043998     00001000010501022611     00001000029001145930     00001000007901303940     00001000037001303714     00001000037001306314     00001000032502001068     0000100001050679075      0000100002750            0000100000000            0000100000000            0000100000000            0000100000000            0000100000000            0000100000000            0000100000000            0000100000000            0000100000000            0000100000000            0000100000000            0000100000000            0000100000000            0000100000000            0000100000000            0000100000000            0000100000000            0000100000000            0000100000000            0000100000000            0000100000000
16121917013100039710ANCHETA NAVIDE베 - 4                  773009      00001000034001245522     0000100002050960045      0000100001500647922      0000100001600697641      00001000008002002495     00001000017502000171     0000100002850963766      000010000350025895       00001000016001034826     00001000024301267411     00001000017501043998     00001000010501022611     00001000029001145930     00001000007901303940     00001000037001303714     00001000037001306314     00001000032502001068     00001000010501581675     0000100002600            0000100000000            0000100000000            0000100000000            0000100000000            0000100000000            0000100000000            0000100000000            0000100000000            0000100000000            0000100000000            0000100000000            0000100000000            0000100000000            0000100000000            0000100000000            0000100000000            0000100000000            0000100000000            0000100000000            0000100000000            0000100000000
16122317013100120590ANCHETA NAVIDE베 MONOMEROS            1290623     00001000047501107985     0000100004100492172      000010000697011209       00001000053001312865     00001000107001011569     00001000040501327714     000010002490011244       00001000092501017649     0000100015900773463      0000100021600824309      0000100013500            0000100000000            0000100000000            0000100000000            0000100000000            0000100000000            0000100000000            0000100000000            0000100000000            0000100000000            0000100000000            0000100000000            0000100000000            0000100000000            0000100000000            0000100000000            0000100000000            0000100000000            0000100000000            0000100000000            0000100000000            0000100000000            0000100000000            0000100000000            0000100000000            0000100000000            0000100000000            0000100000000            0000100000000            0000100000000
09100209123100027840CANASTA BASICA CHAPINERO              2000152     00001000047502000171     0000100001800647923      0000100005550866863      0000100004890567652      00001000016001073047     00001000024501548359     0000100000750565879      00001000031001548343     00001000007501576794     00001000012501016605     00001000006001058666     0000100002650            0000100000000            0000100000000            0000100000000            0000100000000            0000100000000            0000100000000            0000100000000            0000100000000            0000100000000            0000100000000            0000100000000            0000100000000            0000100000000            0000100000000            0000100000000            0000100000000            0000100000000            0000100000000            0000100000000            0000100000000            0000100000000            0000100000000            0000100000000            0000100000000            0000100000000            0000100000000            0000100000000            0000100000000
14112115033100009990MERCADO OLIMPICA BOGOTA 2             5384        0000100010100160250      0000100002510647925      00001000026001086425     00001000014301073043     00001000016801016605     0000100000650            0000100000000            0000100000000            0000100000000            0000100000000            0000100000000            0000100000000            0000100000000            0000100000000            0000100000000            0000100000000            0000100000000            0000100000000            0000100000000            0000100000000            0000100000000            0000100000000            0000100000000            0000100000000            0000100000000            0000100000000            0000100000000            0000100000000            0000100000000            0000100000000            0000100000000            0000100000000            0000100000000            0000100000000            0000100000000            0000100000000            0000100000000            0000100000000            0000100000000            0000100000000
14112115033100018500ANCHETA SACO-2 OCCIDENTE              758950      00001000039501245522     00001000018501630420     0000100001550647922      00001000013001080297     00001000008001139376     00001000008902000171     00001000012502001064     0000100002760887954      0000100001550864150      00002000014001041488     00001000008001624855     0000100001600895998      00001000017001625251     0000100001415            0000100000000            0000100000000            0000100000000            0000100000000            0000100000000            0000100000000            0000100000000            0000100000000            0000100000000            0000100000000            0000100000000            0000100000000            0000100000000            0000100000000            0000100000000            0000100000000            0000100000000            0000100000000            0000100000000            0000100000000            0000100000000            0000100000000            0000100000000            0000100000000            0000100000000            0000100000000
15101916013100019950ANCHETA SACO-2-COSTA                  816718      00001000033501245522     00001000019501630420     0000100001550647922      0000100001540697641      00001000009201139376     00001000012002000171     00001000019002001064     00001000025001041488     00001000007501624855     00001000023001050194     00001000028001625251     0000100001415            0000100000000            0000100000000            0000100000000            0000100000000            0000100000000            0000100000000            0000100000000            0000100000000            0000100000000            0000100000000            0000100000000            0000100000000            0000100000000            0000100000000            0000100000000            0000100000000            0000100000000            0000100000000            0000100000000            0000100000000            0000100000000            0000100000000            0000100000000            0000100000000            0000100000000            0000100000000            0000100000000            0000100000000
15101916013100025500ANCHETA CAJA-2-COSTA                  816718      00001000033501245522     00001000019501630420     0000100001550647922      0000100001540697641      00001000009201139376     00001000012002000171     00001000019002001064     0000100002500917774      00001000011501041487     0000100002300917772      00001000027001050194     00001000015001267411     00001000017001044000     00001000007501022611     0000100002900            0000100000000            0000100000000            0000100000000            0000100000000            0000100000000            0000100000000            0000100000000            0000100000000            0000100000000            0000100000000            0000100000000            0000100000000            0000100000000            0000100000000            0000100000000            0000100000000            0000100000000            0000100000000            0000100000000            0000100000000            0000100000000            0000100000000            0000100000000            0000100000000            0000100000000
15110616123100019900ANCHETA SACO-2-BOG/OCC                773009      00001000033501245522     00001000019501630420     0000100001550647922      0000100001540697641      00001000009201139376     00001000012002000171     00001000019002001064     00001000025001041488     00001000007501624855     00001000023001050194     00001000028001625251     0000100001415            0000100000000            0000100000000            0000100000000            0000100000000            0000100000000            0000100000000            0000100000000            0000100000000            0000100000000            0000100000000            0000100000000            0000100000000            0000100000000            0000100000000            0000100000000            0000100000000            0000100000000            0000100000000            0000100000000            0000100000000            0000100000000            0000100000000            0000100000000            0000100000000            0000100000000            0000100000000            0000100000000            0000100000000
15110616123100025500ANCHETA CAJA-2-BOG/OCC                773009      00001000033501245522     00001000019501630420     0000100001550647922      0000100001540697641      00001000009201139376     00001000012002000171     00001000019002001064     0000100002500917774      00001000018001041487     0000100000750917772      00001000015001050194     00001000028001267411     00001000020001044000     00001000010001022611     0000100002900            0000100000000            0000100000000            0000100000000            0000100000000            0000100000000            0000100000000            0000100000000            0000100000000            0000100000000            0000100000000            0000100000000            0000100000000            0000100000000            0000100000000            0000100000000            0000100000000            0000100000000            0000100000000            0000100000000            0000100000000            0000100000000            0000100000000            0000100000000            0000100000000            0000100000000
16121517013100042960ANCHETA YAZAKI N. 1                   1319240     00001000061001177338     0000100005800779431      00001000033002004292     00001000065501177502     0000100003500859091      0000100005650700361      00001000040501248484     00001000055001078663     00001000031001181805     0000100001200            0000100000000            0000100000000            0000100000000            0000100000000            0000100000000            0000100000000            0000100000000            0000100000000            0000100000000            0000100000000            0000100000000            0000100000000            0000100000000            0000100000000            0000100000000            0000100000000            0000100000000            0000100000000            0000100000000            0000100000000            0000100000000            0000100000000            0000100000000            0000100000000            0000100000000            0000100000000            0000100000000            0000100000000            0000100000000            0000100000000
11122212013100050000ANCHETA YAZAKI N. 2                   1729469     0000100009900699283      00001000084501485325     00001000033001652277     00001000036501044793     00001000038401024965     000020000083580775       0000100004350718505      0000100002550561         00001000010004457        00001000010001570467     00002000015801476703     00001000026901248803     0000100003150733852      0000100001990            0000100000000            0000100000000            0000100000000            0000100000000            0000100000000            0000100000000            0000100000000            0000100000000            0000100000000            0000100000000            0000100000000            0000100000000            0000100000000            0000100000000            0000100000000            0000100000000            0000100000000            0000100000000            0000100000000            0000100000000            0000100000000            0000100000000            0000100000000            0000100000000            0000100000000            0000100000000
07121807123100050697ANCHETA SOLARTE SOLARTE               409542      0000100005600524505      0000100006170417806      00001000073001025013     000010001372079140       00001000035901267438     00001000048507615        0000100002450149962      0000100002160481127      0000100003690874485      0000100006800            0000100000000            0000100000000            0000100000000            0000100000000            0000100000000            0000100000000            0000100000000            0000100000000            0000100000000            0000100000000            0000100000000            0000100000000            0000100000000            0000100000000            0000100000000            0000100000000            0000100000000            0000100000000            0000100000000            0000100000000            0000100000000            0000100000000            0000100000000            0000100000000            0000100000000            0000100000000            0000100000000            0000100000000            0000100000000            0000100000000
15122315123100095250ANCHETA MONOMEROS-040                 938908      0000100004550824309      00001000134002005357     0000100005450980375      00001000035001564764     00001000113001176265     000010002180089209       0000100004000570513      00001000029001148538     0000100028350            0000100000000            0000100000000            0000100000000            0000100000000            0000100000000            0000100000000            0000100000000            0000100000000            0000100000000            0000100000000            0000100000000            0000100000000            0000100000000            0000100000000            0000100000000            0000100000000            0000100000000            0000100000000            0000100000000            0000100000000            0000100000000            0000100000000            0000100000000            0000100000000            0000100000000            0000100000000            0000100000000            0000100000000            0000100000000            0000100000000            0000100000000
15122115123100088340MERCADO COMPENSAR SEG.                1034818     00001000051701649266     0000100004300938919      0000100004050523459      0000100004300554139      0000100003050859091      0000100004800863771      0000100003750969906      0000100001900483273      0000100002890765345      0000100003600946389      0000300002700402247      0000100002400417806      0000100009600777181      00001000046001093848     00001000034001504230     0000100026900            0000100000000            0000100000000            0000100000000            0000100000000            0000100000000            0000100000000            0000100000000            0000100000000            0000100000000            0000100000000            0000100000000            0000100000000            0000100000000            0000100000000            0000100000000            0000100000000            0000100000000            0000100000000            0000100000000            0000100000000            0000100000000            0000100000000            0000100000000            0000100000000
15122115123100081840MERCADO COMPENSAR ASEO                1034818     00001000051701649266     0000100004300938919      0000100004050859091      0000200004800554139      0000100003050863771      0000100003750969906      0000100001900483273      0000100002890765345      0000100003600946389      0000300002700402247      0000100002400417806      0000100009600777181      00001000046001093848     00001000034001134379     0000100012900            0000100000000            0000100000000            0000100000000            0000100000000            0000100000000            0000100000000            0000100000000            0000100000000            0000100000000            0000100000000            0000100000000            0000100000000            0000100000000            0000100000000            0000100000000            0000100000000            0000100000000            0000100000000            0000100000000            0000100000000            0000100000000            0000100000000            0000100000000            0000100000000            0000100000000
09112810013100038080ANCH EVEREADY-UNILEVER 32             680389      0000100007130956855      0000100006540817913      0000100011500791243      00001000079501572623     00001000129001549132     0000100004950646985      0000100008186            0000100000000            0000100000000            0000100000000            0000100000000            0000100000000            0000100000000            0000100000000            0000100000000            0000100000000            0000100000000            0000100000000            0000100000000            0000100000000            0000100000000            0000100000000            0000100000000            0000100000000            0000100000000            0000100000000            0000100000000            0000100000000            0000100000000            0000100000000            0000100000000            0000100000000            0000100000000            0000100000000            0000100000000            0000100000000            0000100000000            0000100000000            0000100000000            0000100000000
09112810013100036032ANCH JOHNSON y JOHNSON 33             1548472     00001000134001605798     000010000730012886       00001000092501589169     0000100003600999663      0000100013300646985      0000100008186            0000100000000            0000100000000            0000100000000            0000100000000            0000100000000            0000100000000            0000100000000            0000100000000            0000100000000            0000100000000            0000100000000            0000100000000            0000100000000            0000100000000            0000100000000            0000100000000            0000100000000            0000100000000            0000100000000            0000100000000            0000100000000            0000100000000            0000100000000            0000100000000            0000100000000            0000100000000            0000100000000            0000100000000            0000100000000            0000100000000            0000100000000            0000100000000            0000100000000            0000100000000
09112810013100036793ANCH LOREAL-ELVIVE 34                 1495881     00001000106201495879     0000100012990864205      000010001299069706       0000100010390646985      0000100008186            0000100000000            0000100000000            0000100000000            0000100000000            0000100000000            0000100000000            0000100000000            0000100000000            0000100000000            0000100000000            0000100000000            0000100000000            0000100000000            0000100000000            0000100000000            0000100000000            0000100000000            0000100000000            0000100000000            0000100000000            0000100000000            0000100000000            0000100000000            0000100000000            0000100000000            0000100000000            0000100000000            0000100000000            0000100000000            0000100000000            0000100000000            0000100000000            0000100000000            0000100000000            0000100000000
09112810013100036734ANCH LOREAL RT5 35                    1599310     00001000105001599308     00001000114001599299     000010001140069706       0000100010390646985      0000100008186            0000100000000            0000100000000            0000100000000            0000100000000            0000100000000            0000100000000            0000100000000            0000100000000            0000100000000            0000100000000            0000100000000            0000100000000            0000100000000            0000100000000            0000100000000            0000100000000            0000100000000            0000100000000            0000100000000            0000100000000            0000100000000            0000100000000            0000100000000            0000100000000            0000100000000            0000100000000            0000100000000            0000100000000            0000100000000            0000100000000            0000100000000            0000100000000            0000100000000            0000100000000            0000100000000
09112810013100026765ANCH CAREY 36                         1623710     00001000112001623714     00001000053001623717     00001000099001569855     0000100003900646985      0000100008186            0000100000000            0000100000000            0000100000000            0000100000000            0000100000000            0000100000000            0000100000000            0000100000000            0000100000000            0000100000000            0000100000000            0000100000000            0000100000000            0000100000000            0000100000000            0000100000000            0000100000000            0000100000000            0000100000000            0000100000000            0000100000000            0000100000000            0000100000000            0000100000000            0000100000000            0000100000000            0000100000000            0000100000000            0000100000000            0000100000000            0000100000000            0000100000000            0000100000000            0000100000000            0000100000000
09120710013100016990MERCADO ASOCIACION                    481129      00001000023001485325     0000100002650647925      00001000021602000171     00001000018002000084     00002000028002001068     0000200000500866863      0000100004890            0000100000000            0000100000000            0000100000000            0000100000000            0000100000000            0000100000000            0000100000000            0000100000000            0000100000000            0000100000000            0000100000000            0000100000000            0000100000000            0000100000000            0000100000000            0000100000000            0000100000000            0000100000000            0000100000000            0000100000000            0000100000000            0000100000000            0000100000000            0000100000000            0000100000000            0000100000000            0000100000000            0000100000000            0000100000000            0000100000000            0000100000000            0000100000000            0000100000000
09120409123100023040ANCHETA COOMEVA                       566290      00001000023001485325     0000100002650864236      00001000025501024965     0000100000900974259      0000100002450230011      0000100003990149963      000010000183060785       0000100002000111668      0000100003280544468      0000100006200            0000100000000            0000100000000            0000100000000            0000100000000            0000100000000            0000100000000            0000100000000            0000100000000            0000100000000            0000100000000            0000100000000            0000100000000            0000100000000            0000100000000            0000100000000            0000100000000            0000100000000            0000100000000            0000100000000            0000100000000            0000100000000            0000100000000            0000100000000            0000100000000            0000100000000            0000100000000            0000100000000            0000100000000            0000100000000            0000100000000
16120217013100045055MERCADO WORLD VISION                  1023915     000010000360016365       0000100002700773009      0000100003400691217      00001000004502000171     00001000025002001068     0000100001050945089      00001000081002002495     0000100001800132017      0000100003110882445      0000100004950874805      00001000036001016508     0000500001590963766      00001000040501022611     0000100003100            0000100000000            0000100000000            0000100000000            0000100000000            0000100000000            0000100000000            0000100000000            0000100000000            0000100000000            0000100000000            0000100000000            0000100000000            0000100000000            0000100000000            0000100000000            0000100000000            0000100000000            0000100000000            0000100000000            0000100000000            0000100000000            0000100000000            0000100000000            0000100000000            0000100000000            0000100000000
09120910013100087100ANCH. COMPENSAR 40                    1589144     000010000570014331       000010000135066099       00001000021001245522     00001000015501485325     00001000026501548343     000020000075051726       00001000126502006180     00001000004132000114     00001000013002000083     00001000035002000097     00001000021502000171     0000100001800570221      000010000264027634       0000100001650107694      00001000014001063808     00001000010501053480     00001000018002005355     00001000042901570438     00001000039501135710     00001000030601548358     0000100000750564262      00002000010502006257     00001000026501058666     00001000029001234569     00003000046312006600     00003000021401139952     0000100001750864236      00001000025501617161     0000100001600566287      00002000027501542746     00002000017002000152     00001000042001623115     00003000008001625251     0000100001000            0000100000000            0000100000000            0000100000000            0000100000000            0000100000000            0000100000000
09120910013100016000ANCHETA JARDINES 41                   647922      0000100001350633532      0000200001200564262      00001000010502000171     0000100001800566287      00001000027501234569     00001000046312000081     00001000011001589144     0000100005700            0000100000000            0000100000000            0000100000000            0000100000000            0000100000000            0000100000000            0000100000000            0000100000000            0000100000000            0000100000000            0000100000000            0000100000000            0000100000000            0000100000000            0000100000000            0000100000000            0000100000000            0000100000000            0000100000000            0000100000000            0000100000000            0000100000000            0000100000000            0000100000000            0000100000000            0000100000000            0000100000000            0000100000000            0000100000000            0000100000000            0000100000000            0000100000000
09120910013100063750MERCADO PANAMERICANA 42               1073043     00001000016001605781     00001000039501016605     00001000006501073311     0000100003560535367      00001000016902002495     000010000105026816       00001000015902000100     00001000014502000114     00002000013002000054     00001000041502000125     0000100001450566500      0000100004350990477      0000100003000647924      0000100010750565882      00001000049901058669     00001000024501582735     00001000045901548343     0000200000750560590      0000100000450560592      00001000006002006586     00003000008001553747     00001000029901226456     000010000295019521       0000100001040535468      000010000185019042       00001000015501063808     00001000010501548359     0000200000750570284      0000100001280570216      00001000014201138025     0000100002630            0000100000000            0000100000000            0000100000000            0000100000000            0000100000000            0000100000000            0000100000000            0000100000000            0000100000000
09120910013100070000ANCHETA ARGENTINIDAD 43               1543319     00001000289001543330     00001000055501543329     00001000068001543320     00001000266501543341     0000100026450            0000100000000            0000100000000            0000100000000            0000100000000            0000100000000            0000100000000            0000100000000            0000100000000            0000100000000            0000100000000            0000100000000            0000100000000            0000100000000            0000100000000            0000100000000            0000100000000            0000100000000            0000100000000            0000100000000            0000100000000            0000100000000            0000100000000            0000100000000            0000100000000            0000100000000            0000100000000            0000100000000            0000100000000            0000100000000            0000100000000            0000100000000            0000100000000            0000100000000            0000100000000            0000100000000
12121313013100142948ANCH U. MILITAR 1-44                  708104      00001000378551542752     00001000046002007743     00001000186501652278     0000100006620664834      00001000098401532480     00001000063002006283     00001000109001222423     0000100007240523229      0000100006280149962      000010000284084334       0000200006050699283      00001000085001476759     0000100010560742866      0000100003950912965      00001000029001324487     00001000297002004292     0000100004360            0000100000000            0000100000000            0000100000000            0000100000000            0000100000000            0000100000000            0000100000000            0000100000000            0000100000000            0000100000000            0000100000000            0000100000000            0000100000000            0000100000000            0000100000000            0000100000000            0000100000000            0000100000000            0000100000000            0000100000000            0000100000000            0000100000000            0000100000000
12121313013100062068ANCH. U. MILITAR 2-45                 1652280     00001000032501485325     0000100003400818656      00001000029001622591     0000100003100831716      0000100003100508782      0000100003300402247      0000100002150508759      000010000510085707       0000100008700764041      00001000038002000171     000010000120013700       00001000027501638440     0000100001300773009      0000100003750779657      00001000033002000085     00001000032002004701     0000100002990647925      00001000029001138211     0000100002450777786      0000100003100            0000100000000            0000100000000            0000100000000            0000100000000            0000100000000            0000100000000            0000100000000            0000100000000            0000100000000            0000100000000            0000100000000            0000100000000            0000100000000            0000100000000            0000100000000            0000100000000            0000100000000            0000100000000            0000100000000            0000100000000
12121313013100173331ANCH. U. MILITAR 3-46                 191647      000010003240070534       00001000171001316564     0000100015900981753      0000100014650214125      0000100005900567289      00001000153502000294     00001000466502000297     00001000451001060348     00001000061001375082     00001000172002374        0000100003000            0000100000000            0000100000000            0000100000000            0000100000000            0000100000000            0000100000000            0000100000000            0000100000000            0000100000000            0000100000000            0000100000000            0000100000000            0000100000000            0000100000000            0000100000000            0000100000000            0000100000000            0000100000000            0000100000000            0000100000000            0000100000000            0000100000000            0000100000000            0000100000000            0000100000000            0000100000000            0000100000000            0000100000000            0000100000000
09121410013100040903ANCH. U. MILITAR 4-47                 690387      0000100008990791435      00001000024901212682     00001000041001485325     000010000265079140       00001000066301616896     00001000029001623566     0000100002550780887      0000100004100427185      00001000030001245522     00001000015502001865     00001000035002001870     0000100002340566290      0000100001990            0000100000000            0000100000000            0000100000000            0000100000000            0000100000000            0000100000000            0000100000000            0000100000000            0000100000000            0000100000000            0000100000000            0000100000000            0000100000000            0000100000000            0000100000000            0000100000000            0000100000000            0000100000000            0000100000000            0000100000000            0000100000000            0000100000000            0000100000000            0000100000000            0000100000000            0000100000000            0000100000000
11120111123100034250ANCHETA CHALLENGER                    647923      00001000061502000171     00001000019502000083     00001000041002002495     0000100001300565879      00001000041201628528     000010000120066099       00001000021001245522     0000100001400566287      00001000029002005359     00001000047001485325     0000100003300706405      00001000020001139952     00001000019501652805     0000100001630697798      00001000025002000100     00001000013502004701     00001000029502006282     0000100005600            0000100000000            0000100000000            0000100000000            0000100000000            0000100000000            0000100000000            0000100000000            0000100000000            0000100000000            0000100000000            0000100000000            0000100000000            0000100000000            0000100000000            0000100000000            0000100000000            0000100000000            0000100000000            0000100000000            0000100000000            0000100000000            0000100000000
11120111123100035000ANCHETA COMPENSAR-MOSQUERA            764056      00001000047002000023     00001000012502000081     0000100000950496590      0000100001850574079      00001000019801485325     0000100003300705139      00001000026501252565     00001000059802000171     000010000195013784       00001000028401564607     00001000035002006586     000010000135095323       0000100006800            0000100000000            0000100000000            0000100000000            0000100000000            0000100000000            0000100000000            0000100000000            0000100000000            0000100000000            0000100000000            0000100000000            0000100000000            0000100000000            0000100000000            0000100000000            0000100000000            0000100000000            0000100000000            0000100000000            0000100000000            0000100000000            0000100000000            0000100000000            0000100000000            0000100000000            0000100000000            0000100000000
12121713013100012400ANCHETA HENKEL                        777142      00001000028502001870     000010000267013757       000010000167069037       0000100004700771123      0000100002850            0000100000000            0000100000000            0000100000000            0000100000000            0000100000000            0000100000000            0000100000000            0000100000000            0000100000000            0000100000000            0000100000000            0000100000000            0000100000000            0000100000000            0000100000000            0000100000000            0000100000000            0000100000000            0000100000000            0000100000000            0000100000000            0000100000000            0000100000000            0000100000000            0000100000000            0000100000000            0000100000000            0000100000000            0000100000000            0000100000000            0000100000000            0000100000000            0000100000000            0000100000000            0000100000000
16111217060200019900MERCADO OLIMPICA  SACO-1 COSTA        773009      00001000034001245522     0000100002050960045      0000100001500647922      0000100001600697641      00001000009002002495     00001000017002000171     0000100002500963766      000010000445025895       00001000016001034826     00001000024701625251     0000100001450            0000100000000            0000100000000            0000100000000            0000100000000            0000100000000            0000100000000            0000100000000            0000100000000            0000100000000            0000100000000            0000100000000            0000100000000            0000100000000            0000100000000            0000100000000            0000100000000            0000100000000            0000100000000            0000100000000            0000100000000            0000100000000            0000100000000            0000100000000            0000100000000            0000100000000            0000100000000            0000100000000            0000100000000            0000100000000
16111217013100019900MERCADO OLIMPICA  SACO-1  NAL. SIN COS773009      00001000034001245522     0000100002050960045      0000100001500647922      00001000016601246171     00001000009502002495     00001000018002000171     0000100002500963766      000010000385025895       00001000016001034826     00001000025901625251     0000100001415            0000100000000            0000100000000            0000100000000            0000100000000            0000100000000            0000100000000            0000100000000            0000100000000            0000100000000            0000100000000            0000100000000            0000100000000            0000100000000            0000100000000            0000100000000            0000100000000            0000100000000            0000100000000            0000100000000            0000100000000            0000100000000            0000100000000            0000100000000            0000100000000            0000100000000            0000100000000            0000100000000            0000100000000            0000100000000
16111217020200024500MERCADO OLIMPICA CAJA-1 COSTA         773009      00001000034001245522     0000100002050960045      0000100001250647922      0000100001600697641      00001000008002002495     00001000017502000171     0000100002650963766      000010000405025895       00001000016001034826     00001000024301267411     00001000021501043998     00001000010501022611     0000100002900            0000100000000            0000100000000            0000100000000            0000100000000            0000100000000            0000100000000            0000100000000            0000100000000            0000100000000            0000100000000            0000100000000            0000100000000            0000100000000            0000100000000            0000100000000            0000100000000            0000100000000            0000100000000            0000100000000            0000100000000            0000100000000            0000100000000            0000100000000            0000100000000            0000100000000            0000100000000            0000100000000
                                                                                                                                                                                                                                                                                                                                                                                                                                                                                                                                                                                                                                                                                                                                                                                                                                                                                                                                                                                                                                                                                                                                                                                                                                                                                                                                                                                                                                                                                                                                                                                                                                                                                                                                                                                                                                                                                                                                                                                                                                                                                                                                                                                                                                                                                                                                                                                                                                                                                                                                                                                                                                                                                                                                                                                                                                                                                                                                                                                                                                                                                                                                                                                                                                                                                                                                                                                                                                                                                                                                                                                                                                                                                                                                                                                                                                                                                                                                                                                                                                                                                                                                                                                                                                                                                                                                                                                                                16111217013100024500MERCADO OLIMPICA CAJA-1 RESTO PAIS    773009      00001000034001245522     0000100002050960045      0000100001500647922      0000100001660697641      00001000009802002495     00001000018002000171     0000100002500963766      000010000385025895       00001000016001034826     00001000025901267411     00001000020501043998     00001000007001022611     0000100002900            0000100000000            0000100000000            0000100000000            0000100000000            0000100000000            0000100000000            0000100000000            0000100000000            0000100000000            0000100000000            0000100000000            0000100000000            0000100000000            0000100000000            0000100000000            0000100000000            0000100000000            0000100000000            0000100000000            0000100000000            0000100000000            0000100000000            0000100000000            0000100000000            0000100000000            0000100000000            0000100000000
                                                                                                                                                                                                                                                                                                                                                                                                                                                                                                                                                                                                                                                                                                                                                                                                                                                                                                                                                                                                                                                                                                                                                                                                                                                                                                                                                                                                                                                                                                                                                                                                                                                                                                                                                                                                                                                                                                                                                                                                                                                                                                                                                                                                                                                                                                                                                                                                                                                                                                                                                                                                                                                                                                                                                                                                                                                                                                                                                                                                                                                                                                                                                                                                                                                                                                                                                                                                                                                                                                                                                                                                                                                                                                                                                                                                                                                                                                                                                                                                                                                                                                                                                                                                                                                                                                                                                                                                                